:03000000020006F5
:10005F00E4F508F509F50AF50B750C5E750D0175DC
:10006F000EE2750F047510F375110D7512E8751307
:09007F0003F514751501020003DC
:0300030002008870
:10008800120CC9AF9674FE5FF596439701AF96744C
:10009800FD5FF596439702AF9674FB5FF59643971D
:1000A80004AF9674F75FF596C294C295C296C2974C
:1000B800C2B0C2B1C2B2C2B3439708AF9274EF5F85
:1000C800F592439310AF9274DF5FF592439320AF9C
:1000D8009274BF5FF592439340AF92747F5FF5923D
:1000E800439380C2B0C2B1C2B2C2B3C294C295C275
:1000F80096C29774FB25154070E51575F028A4F590
:100108008285F083120CF2209103751401C2B3D2D8
:10011800B0C297D294E51575F028A4F58285F083CE
:10012800120CF2209103751401C2B0D2B1C294D25C
:1001380095E51575F028A4F58285F083120CF22058
:100148009103751401C2B1D2B2C295D296E5157564
:10015800F028A4F58285F083120CF220910375141F
:1001680001C2B2D2B3C296D2977405B51502800304
:1001780002042AC2B0C2B1C2B2C2B3C294C295C20A
:1001880096C297E4F50AF50B2091037514017508DA
:1001980001750900C3E508950CE5096480850DF033
:1001A80063F08095F040030202CCE50A450B70022B
:1001B800D2947401B50A06E4B50B0280028002D21B
:1001C800957402B50A06E4B50B0280028002D29645
:1001D8007403B50A06E4B50B0280028002D2977454
:1001E80004B50A06E4B50B0280028002D2B0740599
:1001F800B50A06E4B50B0280028002D2B17406B5D6
:100208000A06E4B50B0280028002D2B27407B50A6E
:1002180006E4B50B0280028002D2B385081B85096B
:100228001C90000A120EEE120CDCE50A450B700257
:10023800C2947401B50A06E4B50B0280028002C2BA
:10024800957402B50A06E4B50B0280028002C296D4
:100258007403B50A06E4B50B0280028002C29774E3
:1002680004B50A06E4B50B0280028002C2B0740528
:10027800B50A06E4B50B0280028002C2B17406B565
:100288000A06E4B50B0280028002C2B27407B50AFE
:1002980006E4B50B0280028002C2B385081B8509FB
:1002A8001C90000A120EEEAE82AF83E510C39EF5D5
:1002B80082E5119FF583120CDC0508E4B5080205F8
:1002C8000902019C209103751401E50C24FFF5082F
:1002D800E50D34FFF509C3E4950874808509F063DA
:1002E800F08095F0400302040CE50A450B7002D239
:1002F800947401B50A06E4B50B0280028002D29517
:100308007402B50A06E4B50B0280028002D2967424
:1003180003B50A06E4B50B0280028002D297740482
:10032800B50A06E4B50B0280028002D2B07405B5A6
:100338000A06E4B50B0280028002D2B17406B50A3F
:1003480006E4B50B0280028002D2B27407B50A0631
:10035800E4B50B0280028002D2B385081B85091C14
:1003680090000A120EEE120CDCE50A450B7002C270
:10037800947401B50A06E4B50B0280028002C295A6
:100388007402B50A06E4B50B0280028002C29674B4
:1003980003B50A06E4B50B0280028002C297740412
:1003A800B50A06E4B50B0280028002C2B07405B536
:1003B8000A06E4B50B0280028002C2B17406B50ACF
:1003C80006E4B50B0280028002C2B27407B50A06C1
:1003D800E4B50B0280028002C2B385081B85091CA4
:1003E80090000A120EEEAE82AF83E510C39EF5822E
:1003F800E5119FF583120CDC150874FFB50802158A
:10040800090202DE209103751401050AE4B50A0207
:10041800050BC3E50A9408E50B6480948050030239
:1004280001907406B51502800302060DE4F50AF57D
:100438000B209103751401750801750900C3E508BF
:10044800950CE5096480850DF063F08095F0400314
:10045800020575E50A450B7002D2947401B50A06C7
:10046800E4B50B0280028002D2957402B50A06E454
:10047800B50B0280028002D2967403B50A06E4B571
:100488000B0280028002D2977404B50A06E4B50B09
:100498000280028002D2B07405B50A06E4B50B02E8
:1004A80080028002D2B17406B50A06E4B50B028058
:1004B800028002D2B27407B50A06E4B50B028002C4
:1004C8008002D2B385081B85091C90000A120EEE23
:1004D800120CDCE50A450B7002C2947401B50A06D9
:1004E800E4B50B0280028002C2957402B50A06E4E4
:1004F800B50B0280028002C2967403B50A06E4B501
:100508000B0280028002C2977404B50A06E4B50B98
:100518000280028002C2B07405B50A06E4B50B0277
:1005280080028002C2B17406B50A06E4B50B0280E7
:10053800028002C2B27407B50A06E4B50B02800253
:100548008002C2B385081B85091C90000A120EEEB2
:10055800AE82AF83E510C39EF582E5119FF5831245
:100568000CDC0508E4B508020509020445209103DE
:10057800751401E50C24FFF508E50D34FFF509C3F2
:10058800E4950874808509F063F08095F05058D29E
:1005980094D295D296D297D2B0D2B1D2B2D2B385F4
:1005A800081B85091C90000A120EEE120CDCC2947E
:1005B800C295C296C297C2B0C2B1C2B2C2B38508D0
:1005C8001B85091C90000A120EEEAE82AF83E5105F
:1005D800C39EF582E5119FF583120CDC150874FFA4
:1005E800B5080215098098209103751401050AE4DD
:1005F800B50A02050BC3E50A9408E50B64809480EC
:1006080050030204397407B5150280030207F92064
:100618009103751401D294C295C296C297C2B0C212
:10062800B1C2B2C2B3900096120CF22091037514B5
:1006380001C294D295C296C297C2B0C2B1C2B2C228
:10064800B3900096120CF2209103751401C294C263
:1006580095D296C297C2B0C2B1C2B2C2B390009648
:10066800120CF2209103751401C294C295C296D25D
:1006780097C2B0C2B1C2B2C2B3900096120CF220B7
:100688009103751401C294C295C296C297C2B0C2B2
:10069800B1C2B2C2B3900096120CF2209103751445
:1006A80001C294C295C296C297D2B0C2B1C2B2C2B8
:1006B800B3900096120CF2209103751401C294C2F3
:1006C80095C296C297C2B0D2B1C2B2C2B3900096D8
:1006D800120CF2209103751401C294C295C296C2FD
:1006E80097C2B0C2B1D2B2C2B3900096120CF22037
:1006F8009103751401C294C295C296C297C2B0C242
:10070800B1C2B2D2B39000FA120CF2209103751460
:1007180001C294C295C296C297C2B0C2B1D2B2C247
:10072800B3900096120CF2209103751401C294C282
:1007380095C296C297C2B0D2B1C2B2C2B390009667
:10074800120CF2209103751401C294C295C296C28C
:1007580097D2B0C2B1C2B2C2B3900096120CF220C6
:100768009103751401C294C295C296C297C2B0C2D1
:10077800B1C2B2C2B3900096120CF2209103751464
:1007880001C294C295C296D297C2B0C2B1C2B2C2D7
:10079800B3900096120CF2209103751401C294C212
:1007A80095D296C297C2B0C2B1C2B2C2B3900096F7
:1007B800120CF2209103751401C294D295C296C20C
:1007C80097C2B0C2B1C2B2C2B3900096120CF22066
:1007D8009103751401D294C295C296C297C2B0C251
:1007E800B1C2B2C2B39000FA120CF2209103751490
:1007F800017408B5150280030208F92091037514E5
:1008080001750801750900C3E508950CE5096480C0
:10081800850DF063F08095F05057D294D295D2961A
:10082800D297D2B0D2B1D2B2D2B385081B85091CF7
:1008380090000A120EEE120CDCC294C295C296C247
:1008480097C2B0C2B1C2B2C2B385081B85091C9059
:10085800000A120EEEAE82AF83E510C39EF582E564
:10086800119FF583120CDC0508E4B5089A05098088
:1008780096209103751401E50C24FFF508E50D3465
:10088800FFF509C3E4950874808509F063F0809545
:10089800F05058D294D295D296D297D2B0D2B1D243
:1008A800B2D2B385081B85091C90000A120EEE12FD
:1008B8000CDCC294C295C296C297C2B0C2B1C2B291
:1008C800C2B385081B85091C90000A120EEEAE8281
:1008D800AF83E510C39EF582E5119FF583120CDC0A
:1008E800150874FFB508021509809820910375143E
:1008F800017409B515028003020993209103751448
:1009080001E51575F028A4F58285F083120CF2C272
:10091800B0C2B1C2B2C2B3C294C295C296C2972045
:100928009103751401E51575F028A4F58285F08307
:10093800120CF2D2B0D2B1D2B2D2B3D294D295D2F2
:1009480096D297209103751401E51575F028A4F542
:100958008285F083120CF2C2B0C2B1C2B2C2B3C275
:1009680094C295C296C297209103751401E5157536
:10097800F028A4F58285F083120CF2D2B0D2B1D25D
:10098800B2D2B3D294D295D296D297740AB5156CD6
:10099800209103751401E51575F028A4F58285F0FA
:1009A80083120CF2D294C295C296D297C2B0C2B149
:1009B800D2B2C2B3209103751401E51575F028A4CD
:1009C800F58285F083120CF2C294D295C296C29732
:1009D800D2B0C2B1C2B2D2B3209103751401E515E9
:1009E80075F028A4F58285F083120CF2C294C295A2
:1009F800D296C297C2B0D2B1C2B2C2B3740BB51507
:100A0800028003020CAE9000C8120CF2209103750C
:100A18001401C294D295D296C297D2B0D2B1C2B2C2
:100A2800D2B3900190120CF2C294C295C296C297AA
:100A3800C2B0C2B1C2B2C2B39000C8120CF22091C7
:100A480003751401C294D295C296C297C2B0C2B1BE
:100A5800C2B2C2B3900190120CF2C294C295C2966F
:100A6800C297C2B0C2B1C2B2C2B39000C8120CF2EF
:100A7800209103751401C294D295D296C297D2B030
:100A8800D2B1C2B2C2B3900190120CF2C294C29514
:100A9800C296C297C2B0C2B1C2B2C2B39000C81265
:100AA8000CF2209103751401C294D295D296C29784
:100AB800C2B0D2B1C2B2D2B3900190120CF2C294B9
:100AC800C295C296C297C2B0C2B1C2B2C2B39000B8
:100AD800C8120CF2209103751401C294D295D296D3
:100AE800C297C2B0D2B1C2B2D2B3900190120CF286
:100AF800C294C295C296C297C2B0C2B1C2B2C2B3C2
:100B08009000C8120CF2209103751401C294D2957A
:100B1800D296D297C2B0D2B1C2B2C2B390019012EB
:100B28000CF2C294C295C296C297C2B0C2B1C2B208
:100B3800C2B39000C8120CF2209103751401C2943C
:100B4800D295D296C297D2B0D2B1D2B2C2B39001E6
:100B580090120CF2C294C295C296C297C2B0C2B1AA
:100B6800C2B2C2B39000C8120CF2209103751401EE
:100B7800C294D295D296C297C2B0D2B1C2B2D2B301
:100B8800900190120CF2C294C295C296C297C2B05C
:100B9800C2B1C2B2C2B39000C8120CF22091037560
:100BA8001401C294D295D296D297C2B0D2B1C2B231
:100BB800C2B3900190120CF2C294C295C296C29729
:100BC800C2B0C2B1C2B2C2B39000C8120CF2209136
:100BD80003751401C294C295D296C297D2B0D2B10D
:100BE800D2B2C2B3900190120CF2C294C295C296CE
:100BF800C297C2B0C2B1C2B2C2B39000C8120CF25E
:100C0800209103751401C294D295D296C297D2B09E
:100C1800D2B1D2B2C2B3900190120CF2C294C29572
:100C2800C296C297C2B0C2B1C2B2C2B39000C812D3
:100C38000CF2209103751401C294D295D296C297F2
:100C4800C2B0D2B1C2B2D2B3900190120CF2C29427
:100C5800C295C296C297C2B0C2B1C2B2C2B3900026
:100C6800C8120CF2209103751401C294D295D29641
:100C7800D297C2B0D2B1C2B2C2B3900190120CF2F4
:100C8800C294C295C296C297C2B0C2B1C2B2C2B330
:100C9800900384120CF2C294C295C296C297C2B055
:100CA800C2B1C2B2C2B37401B5140280030200FB20
:100CB8000515E51524F45003751501751400020097
:100CC800FB75A15575A1AAAFB974F85F4405F5B9CC
:100CD80075A10022AE82AF83EE4F600D05A105A17C
:100CE80005A11EBEFF011F80EF22AE82AF83EE4F2B
:100CF80060159003E8C007C006120CDCD006D007C8
:100D08001EBEFF011F80E72243C61022C29FD29E4B
:100D1800C29DC2CDC2CC438780751611751704E4F5
:100D2800F518F519751B0AF51CF51DF51E851682B3
:100D38008517838518F0E519120E06AC828C1A7592
:100D48001B0AE4F51CF51DF51E851682851783859B
:100D580018F0E519120E8985821685831785F01813
:100D6800F51974FB251A501574012516F516E43586
:100D780017F517E43518F518E43519F519AF89741E
:100D88000F5F4420F58943C9A0AF16C3E49FF58DD2
:100D9800D28ED299D29C2210980280FB8599822209
:100DA80085829910990280FB22AF8210990280FBFC
:100DB8008F992210980280FB8599822243C62022AF
:100DC800C2C7D2C5D2C475C2982210C00280FB85A2
:100DD800C182228582C110C10280FB22AF8275A127
:100DE8005575A1AAEF600543B1018007AFB174FE44
:100DF8005FF5B175A10075FF00228582FF22F9E534
:100E08001B451C451D451E60777800C308E51E205C
:100E1800E73BE51B25E0F51BE51C33F51CE51D3319
:100E2800F51DE51E33F51EE582951BE583951CE54A
:100E3800F0951DE9951E50D4C3E51E13F51EE51D5A
:100E480013F51DE51C13F51CE51B13F51BE5829531
:100E58001BFCE583951CFDE5F0951DFEE9951E40FC
:100E680007F98EF08D838C82C3E51E13F51EE51DF0
:100E780013F51DE51C13F51CE51B13F51BD8CEE96E
:100E880022FB7A20E4FCFDFEFFE5822582F582E55F
:100E98008333F583E5F033F5F0EB33FB4017DAE9FC
:100EA8008042E5822582F582E58333F583E5F033D8
:100EB800F5F0EB33FBEC33FCED33FDEE33FEEF33B3
:100EC800FFEC951BED951CEE951DEF951E4013EC60
:100ED800951BFCED951CFDEE951DFEEF951EFF4341
:060EE8008201DABEEB22DC
:06003500E478FFF6D8FD9F
:100013007900E94400601B7A00900F0F780075A007
:1000230000E493F2A308B8000205A0D9F4DAF2754C
:02003300A0FF2C
:100EEE00E582851BF0A4C582C0F0851CF0A4D0F06D
:0D0EFE0025F0C583851BF0A42583F5832214
:10003B007800E84400600A790075A000E4F309D861
:10004B00FC7800E84400600C7900900000E4F0A319
:04005B00D8FCD9FAFA
:0D00060075811E120F0BE5826003020003DE
:040F0B0075820022C9
:00000001FF
