:03000000020006F5
:03005F0002000399
:0300030002006296
:100062001200E153970C5396FE4397015396FD43BA
:1000720097025396FB4397045396F743970853937B
:100082000C5392EF4393105392DF4393205392BF4A
:1000920043934053927F439380B2B1B2B2B2B3B2B0
:1000A20095B296B297900064120109B2B0B2B1B2A1
:1000B20094B295900064120109B2B1B2B2B295B293
:1000C20096900064120109B2B2B2B3B296B297909E
:1000D2000064120109B2B3B2B0B297B29480C6758D
:1000E200A15575A1AA74F855B94405F5B975A100D1
:1000F20022AE82AF83EE4F600D05A105A105A11EC0
:10010200BEFF011F80EF22AE82AF83EE4F601590DB
:1001120003E8C007C0061200F3D006D0071EBEFFD8
:10012200011F80E72243C61022C29FD29EC29DC2F7
:10013200CDC2CC438780750811750904E4F50AF530
:100142000B750D0AF50EF50FF510850882850983EA
:10015200850AF0E50B120227AC828C0C750D0AE4BD
:10016200F50EF50FF510850882850983850AF0E5FD
:100172000B1202AA85820885830985F00AF50B74A1
:10018200FB250C5019AC08AD09AE0AAF0B74012C5B
:10019200F508E43DF509E43EF50AE43FF50B740F7A
:1001A20055894420F58943C9A0AF08C3E49FF58D62
:1001B200D28ED299D29C2210980280FB85998222FB
:1001C20085829910990280FB22AE82AF8310990238
:1001D20080FB8E998E828F832210980280FBAE99CB
:1001E2007F008E828F832243C62022C2C7D2C5D20D
:1001F200C475C2982210C00280FB85C1822285820A
:10020200C110C10280FB22AF8275A15575A1AAEF70
:10021200600543B101800353B1FE75A10075FF0073
:10022200228582FF22F9E50D450E450F45106077C4
:100232007800C308E51020E73BE50D25E0F50DE564
:100242000E33F50EE50F33F50FE51033F510E582A9
:10025200950DE583950EE5F0950FE9951050D4C301
:10026200E51013F510E50F13F50FE50E13F50EE586
:100272000D13F50DE582950DFCE583950EFDE5F078
:10028200950FFEE995104007F98EF08D838C82C39D
:10029200E51013F510E50F13F50FE50E13F50EE556
:1002A2000D13F50DD8CEE922FB7A20E4FCFDFEFF0A
:1002B200E5822582F582E58333F583E5F033F5F0B7
:1002C200EB33FB4017DAE98042E5822582F582E5CD
:1002D2008333F583E5F033F5F0EB33FBEC33FCEDE0
:1002E20033FDEE33FEEF33FFEC950DED950EEE95FB
:1002F2000FEF95104013EC950DFCED950EFDEE956C
:0D0302000FFEEF9510FF438201DABEEB22E3
:06003500E478FFF6D8FD9F
:100013007900E94400601B7A00900313780075A00F
:1000230000E493F2A308B8000205A0D9F4DAF2754C
:02003300A0FF2C
:10003B007800E84400600A790075A000E4F309D861
:10004B00FC7800E84400600C7900900000E4F0A319
:04005B00D8FCD9FAFA
:0D00060075811012030FE5826003020003F4
:04030F0075820022D1
:00000001FF
