:03000000020006F5
:10005F00E4F508F509F50AF50B750C5E750D0175DC
:10006F000EE2750F047510F375110D7512E8751307
:10007F0003751401F515F516F517F5187519010225
:02008F0000036C
:0300030002009167
:1000910012181FAF9674FE5FF596439701AF9674E1
:1000A100FD5FF596439702AF9674FB5FF596439714
:1000B10004AF9674F75FF596439708AF9674EF5FB8
:1000C100F596439710AF9274EF5FF592439310AF9B
:1000D1009274DF5FF592439320AF9274BF5FF59204
:1000E100439340AF92747F5FF592439380E5164549
:1000F1001724FFE433F51A24FF92B0E51A24FF9286
:10010100B1E51A24FF92B2E51A24FF92B3E51A244D
:10011100FF9294E51A24FF9295E51A24FF9296E541
:100121001A24FF9297E514451524FF92B4E514456E
:1001310015B40100E433FF8F143395E0F515E5168E
:100141004517B40100E433FF8F163395E0F517B27C
:10015100B474FB2519500302024BE51975F028A46C
:10016100F58285F083121848209103751801E51670
:10017100451724FFE433F51A24FF92B3E51445151E
:1001810024FFE433F51B24FF92B0E51A24FF929774
:10019100E51B24FF9294E51975F028A4F58285F0FA
:1001A10083121848209103751801E516451724FF9D
:1001B100E433F51B24FF92B0E514451524FFE43325
:1001C100F51A24FF92B1E51B24FF9294E51A24FF4E
:1001D1009295E51975F028A4F58285F083121848E7
:1001E100209103751801E516451724FFE433F51B2B
:1001F10024FF92B1E514451524FFE433F51A24FFD9
:1002010092B2E51B24FF9295E51A24FF9296E51917
:1002110075F028A4F58285F08312184820910375A2
:100221001801E516451724FFE433F51B24FF92B2AC
:10023100E514451524FFE433F51A24FF92B3E51BB9
:1002410024FF9296E51A24FF92977405B51902804E
:10025100030205ECE516451724FFE433F51B24FFE3
:1002610092B0E51B24FF92B1E51B24FF92B2E51B7E
:1002710024FF92B3E51B24FF9294E51B24FF929582
:10028100E51B24FF9296E51B24FF9297E4F50AF5FE
:100291000B209103751801750801750900C3E50864
:1002A100950CE5096480850DF063F08095F04003BD
:1002B10002042EE50A450B7008E514451524FF924A
:1002C100947401B50A06E4B50B0280028008E514B6
:1002D100451524FF92957402B50A06E4B50B028018
:1002E100028008E514451524FF92967403B50A06A9
:1002F100E4B50B0280028008E514451524FF9297AE
:100301007404B50A06E4B50B0280028008E51445C1
:100311001524FF92B07405B50A06E4B50B028002FC
:100321008008E514451524FF92B17406B50A06E468
:10033100B50B0280028008E514451524FF92B274C2
:1003410007B50A06E4B50B0280028008E5144515DD
:1003510024FF92B385082185092290000A121A44CC
:10036100121832E50A450B7008E516451724FF926D
:10037100947401B50A06E4B50B0280028008E51603
:10038100451724FF92957402B50A06E4B50B028065
:10039100028008E516451724FF92967403B50A06F4
:1003A100E4B50B0280028008E516451724FF9297F9
:1003B1007404B50A06E4B50B0280028008E516450F
:1003C1001724FF92B07405B50A06E4B50B0280024A
:1003D1008008E516451724FF92B17406B50A06E4B4
:1003E100B50B0280028008E516451724FF92B2740E
:1003F10007B50A06E4B50B0280028008E516451729
:1004010024FF92B385082185092290000A121A441B
:10041100AE82AF83E510C39EF582E5119FF583128D
:1004210018320508E4B50802050902029E2091036D
:10043100751801E50C24FFF508E50D34FFF509C336
:10044100E4950874808509F063F08095F04003021B
:1004510005CEE50A450B7008E514451524FF929475
:100461007401B50A06E4B50B0280028008E5144563
:100471001524FF92957402B50A06E4B50B028002B9
:100481008008E514451524FF92967403B50A06E425
:10049100B50B0280028008E514451524FF9297747C
:1004A10004B50A06E4B50B0280028008E51445157F
:1004B10024FF92B07405B50A06E4B50B02800280F0
:1004C10008E514451524FF92B17406B50A06E4B592
:1004D1000B0280028008E514451524FF92B27407CF
:1004E100B50A06E4B50B0280028008E5144515241F
:1004F100FF92B385082185092290000A121A44123D
:100501001832E50A450B7008E516451724FF929449
:100511007401B50A06E4B50B0280028008E51645B0
:100521001724FF92957402B50A06E4B50B02800206
:100531008008E516451724FF92967403B50A06E470
:10054100B50B0280028008E516451724FF929774C7
:1005510004B50A06E4B50B0280028008E5164517CA
:1005610024FF92B07405B50A06E4B50B028002803F
:1005710008E516451724FF92B17406B50A06E4B5DD
:100581000B0280028008E516451724FF92B274071A
:10059100B50A06E4B50B0280028008E5164517246A
:1005A100FF92B385082185092290000A121A44AEF0
:1005B10082AF83E510C39EF582E5119FF583121882
:1005C10032150874FFB50802150902044020910391
:1005D100751801050AE4B50A02050BC3E50A94087A
:1005E100E50B6480948050030202927406B51902EF
:1005F1008003020883E4F50AF50B209103751801C5
:10060100750801750900C3E508950CE50964808545
:100611000DF063F08095F04003020797E50A450B62
:100621007008E514451524FF92947401B50A06E497
:10063100B50B0280028008E514451524FF929574DC
:1006410002B50A06E4B50B0280028008E5144515DF
:1006510024FF92967403B50A06E4B50B028002806A
:1006610008E514451524FF92977404B50A06E4B50C
:100671000B0280028008E514451524FF92B0740531
:10068100B50A06E4B50B0280028008E5144515247D
:10069100FF92B17406B50A06E4B50B028002800828
:1006A100E514451524FF92B27407B50A06E4B50BAB
:1006B1000280028008E514451524FF92B3850821C4
:1006C10085092290000A121A44121832E50A450BD4
:1006D1007008E516451724FF92947401B50A06E4E3
:1006E100B50B0280028008E516451724FF92957428
:1006F10002B50A06E4B50B0280028008E51645172B
:1007010024FF92967403B50A06E4B50B02800280B9
:1007110008E516451724FF92977404B50A06E4B557
:100721000B0280028008E516451724FF92B074057C
:10073100B50A06E4B50B0280028008E516451724C8
:10074100FF92B17406B50A06E4B50B028002800877
:10075100E516451724FF92B27407B50A06E4B50BF6
:100761000280028008E516451724FF92B38508210F
:1007710085092290000A121A44AE82AF83E510C3A4
:100781009EF582E5119FF5831218320508E4B5083C
:10079100020509020607209103751801E50C24FFE3
:1007A100F508E50D34FFF509C3E495087480850962
:1007B100F063F08095F04003020865E514451524C7
:1007C100FFE433F51B24FF9294E51B24FF9295E58A
:1007D1001B24FF9296E51B24FF9297E51B24FF92B1
:1007E100B0E51B24FF92B1E51B24FF92B2E51B2467
:1007F100FF92B385082185092290000A121A44123A
:100801001832E516451724FFE433F51B24FF9294B3
:10081100E51B24FF9295E51B24FF9296E51B24FF1F
:100821009297E51B24FF92B0E51B24FF92B1E51BD3
:1008310024FF92B2E51B24FF92B38508218509228A
:1008410090000A121A44AE82AF83E510C39EF5826E
:10085100E5119FF583121832150874FFB5080215CA
:10086100090207A9209103751801050AE4B50A02D6
:10087100050BC3E50A9408E50B64809480500302DC
:1008810005FB7407B519028003020D35209103752C
:100891001801E514451524FF9294E516451724FF28
:1008A100E433F51B24FF9295E51B24FF9296E51B8B
:1008B10024FF9297E51B24FF92B0E51B24FF92B120
:1008C100E51B24FF92B2E51B24FF92B39000961220
:1008D1001848209103751801E516451724FFE433E4
:1008E100F51B24FF9294E514451524FF9295E51B11
:1008F10024FF9296E51B24FF9297E51B24FF92B0FB
:10090100E51B24FF92B1E51B24FF92B2E51B24FFF6
:1009110092B3900096121848209103751801E516BC
:10092100451724FFE433F51B24FF9294E51B24FFB4
:100931009295E514451524FF9296E51B24FF9297A5
:10094100E51B24FF92B0E51B24FF92B1E51B24FFB8
:1009510092B2E51B24FF92B39000961218482091A1
:1009610003751801E516451724FFE433F51B24FF31
:100971009294E51B24FF9295E51B24FF9296E514C2
:10098100451524FF9297E51B24FF92B0E51B24FF38
:1009910092B1E51B24FF92B2E51B24FF92B39000B4
:1009A10096121848209103751801E516451724FF82
:1009B100E433F51B24FF9294E51B24FF9295E51B7C
:1009C10024FF9296E51B24FF9297E51B24FF92B02A
:1009D100E51B24FF92B1E51B24FF92B2E51B24FF26
:1009E10092B3900096121848209103751801E516EC
:1009F100451724FFE433F51B24FF9294E51B24FFE4
:100A01009295E51B24FF9296E51B24FF9297E5142E
:100A1100451524FF92B0E51B24FF92B1E51B24FF8D
:100A210092B2E51B24FF92B39000961218482091D0
:100A310003751801E516451724FFE433F51B24FF60
:100A41009294E51B24FF9295E51B24FF9296E51BEA
:100A510024FF9297E51B24FF92B0E514451524FF6E
:100A610092B1E51B24FF92B2E51B24FF92B39000E3
:100A710096121848209103751801E516451724FFB1
:100A8100E433F51B24FF9294E51B24FF9295E51BAB
:100A910024FF9296E51B24FF9297E51B24FF92B059
:100AA100E51B24FF92B1E514451524FF92B2E51B25
:100AB10024FF92B3900096121848209103751801F3
:100AC100E516451724FFE433F51B24FF9294E51B3B
:100AD10024FF9295E51B24FF9296E51B24FF929734
:100AE100E51B24FF92B0E51B24FF92B1E51B24FF17
:100AF10092B2E514451524FF92B39000FA121848FA
:100B0100209103751801E516451724FFE433F51B01
:100B110024FF9294E51B24FF9295E51B24FF9296F6
:100B2100E51B24FF9297E51B24FF92B0E51B24FFF0
:100B310092B1E514451524FF92B2E51B24FF92B34F
:100B4100900096121848209103751801E516451773
:100B510024FFE433F51B24FF9294E51B24FF9295B7
:100B6100E51B24FF9296E51B24FF9297E51B24FFCA
:100B710092B0E514451524FF92B1E51B24FF92B212
:100B8100E51B24FF92B3900096121848209103753B
:100B91001801E516451724FFE433F51B24FF929451
:100BA100E51B24FF9295E51B24FF9296E51B24FF8C
:100BB1009297E514451524FF92B0E51B24FF92B1ED
:100BC100E51B24FF92B2E51B24FF92B3900096121D
:100BD1001848209103751801E516451724FFE433E1
:100BE100F51B24FF9294E51B24FF9295E51B24FF3E
:100BF1009296E51B24FF9297E51B24FF92B0E51B1B
:100C010024FF92B1E51B24FF92B2E51B24FF92B3AE
:100C1100900096121848209103751801E5164517A2
:100C210024FFE433F51B24FF9294E51B24FF9295E6
:100C3100E51B24FF9296E514451524FF9297E51BC9
:100C410024FF92B0E51B24FF92B1E51B24FF92B271
:100C5100E51B24FF92B3900096121848209103756A
:100C61001801E516451724FFE433F51B24FF929480
:100C7100E51B24FF9295E514451524FF9296E51B8B
:100C810024FF9297E51B24FF92B0E51B24FF92B14C
:100C9100E51B24FF92B2E51B24FF92B3900096124C
:100CA1001848209103751801E516451724FFE43310
:100CB100F51B24FF9294E514451524FF9295E51B3D
:100CC10024FF9296E51B24FF9297E51B24FF92B027
:100CD100E51B24FF92B1E51B24FF92B2E51B24FF23
:100CE10092B3900096121848209103751801E514EB
:100CF100451524FF9294E516451724FFE433F51BAF
:100D010024FF9295E51B24FF9296E51B24FF929701
:100D1100E51B24FF92B0E51B24FF92B1E51B24FFE4
:100D210092B2E51B24FF92B39000FA121848209169
:100D3100037518017408B519028003020EDD2091B4
:100D410003751801750801750900C3E508950CE5DF
:100D5100096480850DF063F08095F04003020E096F
:100D6100E514451524FFE433F51B24FF9294E51B9C
:100D710024FF9295E51B24FF9296E51B24FF929791
:100D8100E51B24FF92B0E51B24FF92B1E51B24FF74
:100D910092B2E51B24FF92B38508218509229000B8
:100DA1000A121A44121832E516451724FFE433F5E6
:100DB1001B24FF9294E51B24FF9295E51B24FF92CF
:100DC10096E51B24FF9297E51B24FF92B0E51B24B7
:100DD100FF92B1E51B24FF92B2E51B24FF92B3857C
:100DE100082185092290000A121A44AE82AF83E5D8
:100DF10010C39EF582E5119FF5831218320508E4B0
:100E0100B508020509020D4B209103751801E50C87
:100E110024FFF508E50D34FFF509C3E49508748056
:100E21008509F063F08095F04003020ED7E5144583
:100E31001524FFE433F51B24FF9294E51B24FF9254
:100E410095E51B24FF9296E51B24FF9297E51B2451
:100E5100FF92B0E51B24FF92B1E51B24FF92B2E59E
:100E61001B24FF92B385082185092290000A121ADA
:100E710044121832E516451724FFE433F51B24FF0D
:100E81009294E51B24FF9295E51B24FF9296E51BA6
:100E910024FF9297E51B24FF92B0E51B24FF92B13A
:100EA100E51B24FF92B2E51B24FF92B3850821853F
:100EB100092290000A121A44AE82AF83E510C39E44
:100EC100F582E5119FF583121832150874FFB508F4
:100ED100021509020E1B2091037518017409B51939
:100EE100028003020F93209103751801900096125E
:100EF1001848E514451524FFE433F51B24FF92B08F
:100F0100E51B24FF92B1E51B24FF92B2E51B24FFF0
:100F110092B3E51B24FF9294E51B24FF9295E51BF8
:100F210024FF9296E51B24FF9297209103751801E7
:100F3100900064121848E516451724FFE433F51BA9
:100F410024FF92B0E51B24FF92B1E51B24FF92B26E
:100F5100E51B24FF92B3E51B24FF9294E51B24FFBC
:100F61009295E51B24FF9296E51B24FF9297E514C9
:100F71004515B40100E433FF8F143395E0F515E511
:100F8100164517B40100E433FF8F163395E0F517CA
:100F9100B2B4740AB5190280030210992091037545
:100FA1001801E51975F028A4F58285F08312184817
:100FB100E514451524FFE433F51B24FF9294E5164F
:100FC100451724FFE433F51A24FF9295E51A24FF0F
:100FD1009296E51B24FF9297E51A24FF92B0E51A39
:100FE10024FF92B1E51B24FF92B2E51A24FF92B3CC
:100FF100209103751801E51975F028A4F58285F093
:1010010083121848E516451724FFE433F51B24FF26
:101011009294E514451524FFE433F51A24FF9295C3
:10102100E51B24FF9296E51B24FF9297E51A24FF06
:1010310092B0E51B24FF92B1E51B24FF92B2E51AA1
:1010410024FF92B3209103751801E51975F028A4C6
:10105100F58285F083121848E516451724FFE4331D
:10106100F51B24FF9294E51B24FF9295E514451589
:1010710024FFE433F51A24FF9296E51B24FF92978F
:10108100E51B24FF92B0E51A24FF92B1E51B24FF72
:1010910092B2E51B24FF92B3740BB51902800302CF
:1010A10017DD9000C8121848209103751801E51644
:1010B100451724FFE433F51B24FF9294E5144515ED
:1010C10024FFE433F51A24FF9295E51A24FF929642
:1010D100E51B24FF9297E51A24FF92B0E51A24FF3D
:1010E10092B1E51B24FF92B2E51A24FF92B390015D
:1010F10090121848E516451724FFE433F51B24FF29
:101101009294E51B24FF9295E51B24FF9296E51B23
:1011110024FF9297E51B24FF92B0E51B24FF92B1B7
:10112100E51B24FF92B2E51B24FF92B39000C81285
:101131001848209103751801E516451724FFE4337B
:10114100F51B24FF9294E514451524FF9295E51BA8
:1011510024FF9296E51B24FF9297E51B24FF92B092
:10116100E51B24FF92B1E51B24FF92B2E51B24FF8E
:1011710092B3900190121848E516451724FFE43305
:10118100F51B24FF9294E51B24FF9295E51B24FF98
:101191009296E51B24FF9297E51B24FF92B0E51B75
:1011A10024FF92B1E51B24FF92B2E51B24FF92B309
:1011B1009000C8121848209103751801E5164517CB
:1011C10024FFE433F51B24FF9294E514451524FF15
:1011D100E433F51A24FF9295E51A24FF9296E51B54
:1011E10024FF9297E51A24FF92B0E51A24FF92B1E9
:1011F100E51B24FF92B2E51B24FF92B390019012EC
:101201001848E516451724FFE433F51B24FF929493
:10121100E51B24FF9295E51B24FF9296E51B24FF15
:101221009297E51B24FF92B0E51B24FF92B1E51BC9
:1012310024FF92B2E51B24FF92B39000C812184814
:10124100209103751801E516451724FFE433F51BBA
:1012510024FF9294E514451524FFE433F51A24FF85
:101261009295E51A24FF9296E51B24FF9297E51BC0
:1012710024FF92B0E51A24FF92B1E51B24FF92B23C
:10128100E51A24FF92B3900190121848E51645170C
:1012910024FFE433F51B24FF9294E51B24FF929570
:1012A100E51B24FF9296E51B24FF9297E51B24FF83
:1012B10092B0E51B24FF92B1E51B24FF92B2E51B1E
:1012C10024FF92B39000C8121848209103751801A9
:1012D100E516451724FFE433F51B24FF9294E5142A
:1012E100451524FFE433F51A24FF9295E51A24FFEE
:1012F1009296E51B24FF9297E51B24FF92B0E51A15
:1013010024FF92B1E51B24FF92B2E51A24FF92B3A8
:10131100900190121848E516451724FFE433F51B98
:1013210024FF9294E51B24FF9295E51B24FF9296DE
:10133100E51B24FF9297E51B24FF92B0E51B24FFD8
:1013410092B1E51B24FF92B2E51B24FF92B39000FA
:10135100C8121848209103751801E516451724FF96
:10136100E433F51B24FF9294E514451524FFE4337F
:10137100F51A24FF9295E51A24FF9296E51A24FFA7
:101381009297E51B24FF92B0E51A24FF92B1E51B69
:1013910024FF92B2E51B24FF92B3900190121848EA
:1013A100E516451724FFE433F51B24FF9294E51B52
:1013B10024FF9295E51B24FF9296E51B24FF92974B
:1013C100E51B24FF92B0E51B24FF92B1E51B24FF2E
:1013D10092B2E51B24FF92B39000C81218482091E5
:1013E10003751801E516451724FFE433F51B24FFA7
:1013F1009294E514451524FFE433F51A24FF9295E0
:10140100E51A24FF9296E51B24FF9297E51A24FF23
:1014110092B0E51A24FF92B1E51A24FF92B2E51BBE
:1014210024FF92B3900190121848E516451724FF46
:10143100E433F51B24FF9294E51B24FF9295E51BF1
:1014410024FF9296E51B24FF9297E51B24FF92B09F
:10145100E51B24FF92B1E51B24FF92B2E51B24FF9B
:1014610092B39000C8121848209103751801E5162F
:10147100451724FFE433F51B24FF9294E514451529
:1014810024FFE433F51A24FF9295E51A24FF92967E
:10149100E51B24FF9297E51B24FF92B0E51A24FF78
:1014A10092B1E51B24FF92B2E51A24FF92B3900199
:1014B10090121848E516451724FFE433F51B24FF65
:1014C1009294E51B24FF9295E51B24FF9296E51B60
:1014D10024FF9297E51B24FF92B0E51B24FF92B1F4
:1014E100E51B24FF92B2E51B24FF92B39000C812C2
:1014F1001848209103751801E516451724FFE433B8
:10150100F51B24FF9294E514451524FFE433F51AE5
:1015110024FF9295E51A24FF9296E51A24FF9297EB
:10152100E51B24FF92B0E51A24FF92B1E51B24FFCD
:1015310092B2E51B24FF92B3900190121848E51670
:10154100451724FFE433F51B24FF9294E51B24FF88
:101551009295E51B24FF9296E51B24FF9297E51BCC
:1015610024FF92B0E51B24FF92B1E51B24FF92B248
:10157100E51B24FF92B39000C8121848209103750F
:101581001801E516451724FFE433F51B24FF929457
:10159100E51B24FF9295E514451524FFE433F51A64
:1015A10024FF9296E51B24FF9297E51A24FF92B03F
:1015B100E51A24FF92B1E51A24FF92B2E51B24FF3C
:1015C10092B3900190121848E516451724FFE433B1
:1015D100F51B24FF9294E51B24FF9295E51B24FF44
:1015E1009296E51B24FF9297E51B24FF92B0E51B21
:1015F10024FF92B1E51B24FF92B2E51B24FF92B3B5
:101601009000C8121848209103751801E516451776
:1016110024FFE433F51B24FF9294E514451524FFC0
:10162100E433F51A24FF9295E51A24FF9296E51BFF
:1016310024FF9297E51A24FF92B0E51A24FF92B194
:10164100E51A24FF92B2E51B24FF92B39001901298
:101651001848E516451724FFE433F51B24FF92943F
:10166100E51B24FF9295E51B24FF9296E51B24FFC1
:101671009297E51B24FF92B0E51B24FF92B1E51B75
:1016810024FF92B2E51B24FF92B39000C8121848C0
:10169100209103751801E516451724FFE433F51B66
:1016A10024FF9294E514451524FFE433F51A24FF31
:1016B1009295E51A24FF9296E51B24FF9297E51B6C
:1016C10024FF92B0E51A24FF92B1E51B24FF92B2E8
:1016D100E51A24FF92B3900190121848E5164517B8
:1016E10024FFE433F51B24FF9294E51B24FF92951C
:1016F100E51B24FF9296E51B24FF9297E51B24FF2F
:1017010092B0E51B24FF92B1E51B24FF92B2E51BC9
:1017110024FF92B39000C812184820910375180154
:10172100E516451724FFE433F51B24FF9294E514D5
:10173100451524FFE433F51A24FF9295E51A24FF99
:101741009296E51A24FF9297E51B24FF92B0E51AC1
:1017510024FF92B1E51B24FF92B2E51B24FF92B353
:10176100900190121848E516451724FFE433F51B44
:1017710024FF9294E51B24FF9295E51B24FF92968A
:10178100E51B24FF9297E51B24FF92B0E51B24FF84
:1017910092B1E51B24FF92B2E51B24FF92B39003A3
:1017A10084121848E516451724FFE433F51B24FF7E
:1017B1009294E51B24FF9295E51B24FF9296E51B6D
:1017C10024FF9297E51B24FF92B0E51B24FF92B101
:1017D100E51B24FF92B2E51B24FF92B37401B518F7
:1017E10002800302015220B4020519E51924F450C4
:1017F10003751901751800E5144515B40100E433AA
:10180100FF8F143395E0F515E5164517B40100E493
:1018110033FF8F163395E0F517B2B402015275A16B
:101821005575A1AAAFB974F85F4405F5B975A10062
:1018310022AE82AF83EE4F600D05A105A105A11E69
:10184100BEFF011F80EF22AE82AF83EE4F60159085
:1018510003E8C007C006121832D006D0071EBEFF2B
:10186100011F80E72243C61022C29FD29EC29DC2A1
:10187100CDC2CC438780751C11751D04E4F51EF59E
:101881001F75210AF522F523F524851C82851D8308
:10189100851EF0E51F12195CAC828C2075210AE4CB
:1018A100F522F523F524851C82851D83851EF0E52F
:1018B1001F1219DF85821C85831D85F01EF51F749B
:1018C100FB252050157401251CF51CE4351DF51D63
:1018D100E4351EF51EE4351FF51FAF89740F5F4413
:1018E10020F58943C9A0AF1CC3E49FF58DD28ED2E8
:1018F10099D29C2210980280FB8599822285829937
:1019010010990280FB22AF8210990280FB8F9922ED
:1019110010980280FB8599822243C62022C2C7D239
:10192100C5D2C475C2982210C00280FB85C1822233
:101931008582C110C10280FB22AF8275A15575A1BC
:10194100AAEF600543B1018007AFB174FE5FF5B145
:1019510075A10075FF00228582FF22F9E52145224C
:101961004523452460777800C308E52420E73BE55B
:101971002125E0F521E52233F522E52333F523E5A1
:101981002433F524E5829521E5839522E5F095231D
:10199100E9952450D4C3E52413F524E52313F52355
:1019A100E52213F522E52113F521E5829521FCE5D8
:1019B100839522FDE5F09523FEE995244007F98EF4
:1019C100F08D838C82C3E52413F524E52313F523DD
:1019D100E52213F522E52113F521D8CEE922FB7A80
:1019E10020E4FCFDFEFFE5822582F582E58333F5E7
:1019F10083E5F033F5F0EB33FB4017DAE98042E59C
:101A0100822582F582E58333F583E5F033F5F0EB4A
:101A110033FBEC33FCED33FDEE33FEEF33FFEC959E
:101A210021ED9522EE9523EF95244013EC9521FCB1
:101A3100ED9522FDEE9523FEEF9524FF438201DA19
:031A4100BEEB22D7
:06003500E478FFF6D8FD9F
:100013007900E94400601B7A00901A65780075A0A6
:1000230000E493F2A308B8000205A0D9F4DAF2754C
:02003300A0FF2C
:101A4400E5828521F0A4C582C0F08522F0A4D0F0FF
:0D1A540025F0C5838521F0A42583F58322AC
:10003B007800E84400600A790075A000E4F309D861
:10004B00FC7800E84400600C7900900000E4F0A319
:04005B00D8FCD9FAFA
:0D000600758124121A61E582600302000377
:041A61007582002268
:00000001FF
