:03000000020006F5
:09005F0075080075090102000397
:0300030002006890
:1000680012057F5396FE4397015396FD439702531B
:1000780096FB4397045396F74397085392EF43939D
:10008800105392DF4393205392BF43934053927F80
:10009800439380C2B0C2B1C2B2C2B3C294C295C2C5
:1000A80096C29774FB2509500302012885090F752C
:1000B80010009000281207AD1205A72091037508BB
:1000C80001C2B3D2B0C297D29485090F75100090BF
:1000D80000281207AD1205A7209103750801C2B0C8
:1000E800D2B1C294D29585090F75100090002812DC
:1000F80007AD1205A7209103750801C2B1D2B2C29B
:1001080095D29685090F7510009000281207AD1238
:1001180005A7209103750801C2B2D2B3C296D2973F
:100128007405B5090280030205629000C81205A78C
:10013800209103750801C294D295D296C297C2B095
:10014800C2B1D2B2D2B39001901205A7C294C2959F
:10015800C296C297C2B0C2B1C2B2C2B39000C812AE
:1001680005A7209103750801C294D295D296C2972B
:10017800C2B0C2B1D2B2C2B39001901205A7C29464
:10018800C295C296C297C2B0C2B1C2B2C2B3900001
:10019800C81205A7209103750801C294D295D2967A
:1001A800C297C2B0D2B1D2B2D2B39001901205A711
:1001B800C294C295C296C297C2B0C2B1C2B2C2B30B
:1001C8009000C81205A7209103750801C294D29522
:1001D800D296C297C2B0D2B1D2B2D2B39001901225
:1001E80005A7C294C295C296C297C2B0C2B1C2B2A4
:1001F800C2B39000C81205A7209103750801C294E4
:10020800D295D296D297C2B0D2B1C2B2C2B390013F
:10021800901205A7C294C295C296C297C2B0C2B145
:10022800C2B2C2B39000C81205A720910375080195
:10023800C294D295D296C297D2B0D2B1D2B2D2B32A
:100248009001901205A7C294C295C296C297C2B0F7
:10025800C2B1C2B2C2B39000C81205A720910375FB
:100268000801C294C295D296C297D2B0D2B1D2B286
:10027800C2B39001901205A7C294C295C296C297C4
:10028800C2B0C2B1C2B2C2B39000C81205A72091D1
:1002980003750801C294D295D296C297D2B0C2B162
:1002A800D2B2D2B39001901205A7C294C295C29659
:1002B800C297C2B0C2B1C2B2C2B39000C81205A7F9
:1002C800209103750801C294D295D296D297C2B0F4
:1002D800C2B1D2B2D2B39001901205A7C294C2950E
:1002E800C296C297C2B0C2B1C2B2C2B39000C8121D
:1002F80005A7209103750801C294D295D296D2978A
:10030800D2B0C2B1D2B2C2B39001901205A7C294C2
:10031800C295C296C297C2B0C2B1C2B2C2B390006F
:10032800C81205A7209103750801C294D295D296E8
:10033800D297C2B0C2B1D2B2C2B39001901205A78F
:10034800C294C295C296C297C2B0C2B1C2B2C2B379
:100358009000C81205A7209103750801C294D29590
:10036800D296C297C2B0C2B1C2B2D2B390019012B3
:1003780005A7C294C295C296C297C2B0C2B1C2B212
:10038800C2B39000C81205A7209103750801C29452
:10039800D295D296C297D2B0D2B1C2B2C2B39001AE
:1003A800901205A7C294C295C296C297C2B0C2B1B4
:1003B800C2B2C2B39000C81205A720910375080104
:1003C800C294D295D296C297D2B0C2B1C2B2D2B3B9
:1003D8009001901205A7C294C295C296C297C2B066
:1003E800C2B1C2B2C2B39000C81205A7209103756A
:1003F8000801C294D295D296D297C2B0D2B1C2B2F5
:10040800D2B39001901205A7C294C295C296C29722
:10041800C2B0C2B1C2B2C2B39000C81205A720913F
:1004280003750801C294D295D296C297C2B0D2B1D0
:10043800D2B2D2B39001901205A7C294C295C296C7
:10044800C297C2B0C2B1C2B2C2B39000C81205A767
:10045800209103750801C294D295D296C297C2B072
:10046800D2B1C2B2D2B39001901205A7C294C2957C
:10047800C296C297C2B0C2B1C2B2C2B39000C8128B
:1004880005A7209103750801C294C295D296C29718
:10049800D2B0D2B1D2B2C2B39001901205A7C29421
:1004A800C295C296C297C2B0C2B1C2B2C2B39000DE
:1004B800C81205A7209103750801C294D295D29657
:1004C800C297D2B0D2B1C2B2D2B39001901205A7EE
:1004D800C294C295C296C297C2B0C2B1C2B2C2B3E8
:1004E8009000C81205A7209103750801C294D295FF
:1004F800D296D297C2B0D2B1D2B2D2B390019012F2
:1005080005A7C294C295C296C297C2B0C2B1C2B280
:10051800C2B39000C81205A7209103750801C294C0
:10052800D295D296C297C2B0D2B1C2B2C2B390012C
:10053800901205A7C294C295C296C297C2B0C2B122
:10054800C2B2C2B39003841205A7C294C295C296E0
:10055800C297C2B0C2B1C2B2C2B37401B5080280B8
:10056800030200ABE509FF04F50924FA50037509F5
:10057800017508000200AB75A15575A1AA74F8555C
:10058800B94405F5B975A10022AE82AF83EE4F607C
:100598000D05A105A105A11EBEFF011F80EF22AE1A
:1005A80082AF83EE4F60159003E8C007C0061205BE
:1005B80091D006D0071EBEFF011F80E72243C61058
:1005C80022C29FD29EC29DC2CDC2CC438780750AEB
:1005D80011750B04E4F50CF50D750F0AF510F511FE
:1005E800F512850A82850B83850CF0E50D1206C588
:1005F800AC828C0E750F0AE4F510F511F512850A18
:1006080082850B83850CF0E50D12074885820A85E3
:10061800830B85F00CF50D74FB250E5019AC0AAD53
:100628000BAE0CAF0D74012CF50AE43DF50BE43E5E
:10063800F50CE43FF50D740F55894420F58943C93D
:10064800A0AF0AC3E49FF58DD28ED299D29C221016
:10065800980280FB8599822285829910990280FBF5
:1006680022AE82AF8310990280FB8E998E828F838F
:100678002210980280FBAE997F008E828F832243DE
:10068800C62022C2C7D2C5D2C475C2982210C002E1
:1006980080FB85C182228582C110C10280FB22AF06
:1006A8008275A15575A1AAEF600543B10180035376
:1006B800B1FE75A10075FF00228582FF22F9E50FC2
:1006C80045104511451260777800C308E51220E708
:1006D8003BE50F25E0F50FE51033F510E51133F58F
:1006E80011E51233F512E582950FE5839510E5F0D3
:1006F8009511E9951250D4C3E51213F512E51113BB
:10070800F511E51013F510E50F13F50FE582950FB8
:10071800FCE5839510FDE5F09511FEE9951240077B
:10072800F98EF08D838C82C3E51213F512E511134F
:10073800F511E51013F510E50F13F50FD8CEE922E2
:10074800FB7A20E4FCFDFEFFE5822582F582E58345
:1007580033F583E5F033F5F0EB33FB4017DAE98046
:1007680042E5822582F582E58333F583E5F033F5AA
:10077800F0EB33FBEC33FCED33FDEE33FEEF33FFF0
:10078800EC950FED9510EE9511EF95124013EC9541
:100798000FFCED9510FDEE9511FEEF9512FF4382CB
:0507A80001DABEEB22A6
:06003500E478FFF6D8FD9F
:100013007900E94400601B7A009007CE780075A050
:1000230000E493F2A308B8000205A0D9F4DAF2754C
:02003300A0FF2C
:1007AD00E582850FF0A4C582C0F08510F0A4D0F0CD
:0D07BD0025F0C583850FF0A42583F5832268
:10003B007800E84400600A790075A000E4F309D861
:10004B00FC7800E84400600C7900900000E4F0A319
:04005B00D8FCD9FAFA
:0D0006007581121207CAE582600302000333
:0407CA007582002212
:00000001FF
